:100000000C942A000C9447000C9447000C94470071
:100010000C9447000C9447000C9447000C94470044
:100020000C9447000C9447000C9447000C94470034
:100030000C9447000C9447000C9447000C94470024
:100040000C9447000C9447000C9447000C94470014
:100050000C94470011241FBECFE5D8E0DEBFCDBF12
:1000600011E0A0E6B0E0E0E1F9E302C005900D92F6
:10007000A838B107D9F711E0A8E8B1E001C01D9296
:10008000A838B107E1F70E9468050C94861C0C940F
:100090000000823451F1833420F4813409F07BC0B4
:1000A00007C0833409F43EC0843409F074C057C0DB
:1000B000413069F42AB381E090E0AC0102C0440F02
:1000C000551F6A95E2F7BA01622B6ABB08952AB3FD
:1000D00081E090E0AC0102C0440F551F6A95E2F741
:1000E000BA01609562236ABB0895413069F427B371
:1000F00081E090E0AC0102C0440F551F6A95E2F721
:10010000BA01622B67BB089527B381E090E0AC0190
:1001100002C0440F551F6A95E2F7BA016095622349
:1001200067BB0895413069F424B381E090E0AC01ED
:1001300002C0440F551F6A95E2F7BA01622B64BBF7
:10014000089524B381E090E0AC0102C0440F551F34
:100150006A95E2F7BA016095622364BB0895413065
:1001600069F421B381E090E0AC0102C0440F551F57
:100170006A95E2F7BA01622B61BB089521B381E071
:1001800090E0AC0102C0440F551F6A95E2F7BA0136
:100190006095622361BB0895823451F1833420F469
:1001A000813409F07BC007C0833409F43EC0843435
:1001B00009F074C057C0413069F42BB381E090E07E
:1001C000AC0102C0440F551F6A95E2F7BA01622BD9
:1001D0006BBB08952BB381E090E0AC0102C0440FEB
:1001E000551F6A95E2F7BA01609562236BBB0895CB
:1001F000413069F428B381E090E0AC0102C0440FC3
:10020000551F6A95E2F7BA01622B68BB089528B3BF
:1002100081E090E0AC0102C0440F551F6A95E2F7FF
:10022000BA016095622368BB0895413069F425B333
:1002300081E090E0AC0102C0440F551F6A95E2F7DF
:10024000BA01622B65BB089525B381E090E0AC0153
:1002500002C0440F551F6A95E2F7BA016095622308
:1002600065BB0895413069F422B381E090E0AC01B0
:1002700002C0440F551F6A95E2F7BA01622B62BBB8
:10028000089522B381E090E0AC0102C0440F551FF5
:100290006A95E2F7BA016095622362BB08958234E1
:1002A000A1F0833418F4813471F505C08334B9F0BA
:1002B000843449F51EC029B330E0C90102C09595C8
:1002C00087956A95E2F78170089526B330E0C901F9
:1002D00002C0959587956A95E2F78170089523B3DA
:1002E00030E0C90102C0959587956A95E2F7817063
:1002F000089520B330E0C90102C0959587956A95AD
:10030000E2F78170089580E008958234B9F0833473
:1003100018F48134C9F505C08334E9F08434A1F5BB
:1003200027C02BB381E090E0AC0102C0440F551F01
:100330006A95E2F7BA0162276BBB089528B381E0A2
:1003400090E0AC0102C0440F551F6A95E2F7BA0174
:10035000622768BB089525B381E090E0AC0102C03C
:10036000440F551F6A95E2F7BA01622765BB0895ED
:1003700022B381E090E0AC0102C0440F551F6A95A2
:10038000E2F7BA01622762BB0895823461F08334D8
:1003900018F4813469F405C0833439F0843441F4AD
:1003A00006C06ABB089567BB089564BB089561BB2E
:1003B0000895823461F0833418F4813469F405C0FF
:1003C000833439F0843441F406C06BBB089568BBB4
:1003D000089565BB089562BB0895823461F083344B
:1003E00018F4813471F405C0833439F0843449F44D
:1003F00006C089B3089586B3089583B3089580B382
:10040000089580E008950F931F93CF93DF93082FF3
:10041000D62FC42F142F1C5F4D2F4170802F6C2FAF
:100420000E94CC00D695CF5FC117B1F7DF91CF9175
:100430001F910F910895823451F1833420F4813457
:1004400009F07BC007C0833409F43EC0843409F04E
:1004500074C057C0413069F42BB381E090E0AC0127
:1004600002C0440F551F6A95E2F7BA01622B6BBBBD
:1004700008952BB381E090E0AC0102C0440F551FFA
:100480006A95E2F7BA01609562236BBB089541302B
:1004900069F428B381E090E0AC0102C0440F551F1D
:1004A0006A95E2F7BA01622B68BB089528B381E030
:1004B00090E0AC0102C0440F551F6A95E2F7BA0103
:1004C0006095622368BB0895413069F425B381E0EB
:1004D00090E0AC0102C0440F551F6A95E2F7BA01E3
:1004E000622B65BB089525B381E090E0AC0102C0AA
:1004F000440F551F6A95E2F7BA016095622365BB08
:100500000895413069F422B381E090E0AC0102C06B
:10051000440F551F6A95E2F7BA01622B62BB08953A
:1005200022B381E090E0AC0102C0440F551F6A95F0
:10053000E2F7BA016095622362BB0895CF93C82F9A
:100540006FE00E94C5018C2F64E041E00E941B0215
:100550008C2F65E041E00E941B028C2F66E041E099
:100560000E941B028C2F67E041E00E941B02CF918A
:100570000895FF920F931F93CF93DF93CDB7DEB70C
:1005800060970FB6F894DEBF0FBECDBF082FDE0117
:100590001196E0E6F0E080E101900D928150E1F7E4
:1005A000FF24802F6FE00E94D901802F6F2D40E043
:1005B0000E94CC0010E0612F6C5F802F0E944F01E1
:1005C000882361F4EF2DF0E0EE0FFF1FEE0FFF1F09
:1005D000E10FF11DEC0FFD1F818104C01F5F14307E
:1005E00051F70CC060960FB6F894DEBF0FBECDBFBA
:1005F000DF91CF911F910F91FF900895F39484E0C4
:10060000F81679F68FEFEECFCF93DF93D82FC62F62
:1006100041E00E94CC008FE99FE00197F1F700C014
:1006200000008D2F6C2F40E00E94CC008FE99FE0EE
:100630000197F1F700C00000DF91CF910895AF92CC
:10064000CF92EF92FF920F931F93CF93DF93C82F18
:10065000D62F142FF22E88E0C81671F48C2F6A2D35
:100660000E94D901812F6F2D40E00E94CC00802F85
:100670006E2D0E9404031EC06A2D62956F708C2F30
:100680004D2F0E940302812F6F2D40E00E94CC006D
:10069000802F6E2D0E9404038C2F6A2D4D2F0E94F7
:1006A0000302812F6F2D40E00E94CC00802F6E2D21
:1006B0000E9404038FEC97E00197F1F700C000005F
:1006C000DF91CF911F910F91FF90EF90CF90AF905E
:1006D0000895AF92CF92EF92FF920F931F93CF9313
:1006E000DF93C82FD62F142FF22E88E0C81671F48E
:1006F0008C2F6A2D0E94D901812F6F2D41E00E941D
:10070000CC00802F6E2D0E9404031EC06A2D6295BE
:100710006F708C2F4D2F0E940302812F6F2D41E0AF
:100720000E94CC00802F6E2D0E9404038C2F6A2D16
:100730004D2F0E940302812F6F2D41E00E94CC00BB
:10074000802F6E2D0E9404038FEC97E00197F1F744
:1007500000C00000DF91CF911F910F91FF90EF90AB
:10076000CF90AF9008956F927F928F929F92AF92A9
:10077000BF92CF92DF92EF92FF920F931F93CF938E
:10078000DF93682E762E842E922ED02EFE2C1C2DDA
:10079000E501A880AA2069F02196862D672D482DB5
:1007A000292D0D2DEF2CC12E0E946903A990AA209E
:1007B000A1F7DF91CF911F910F91FF90EF90DF9004
:1007C000CF90BF90AF909F908F907F906F90089543
:1007D000AF92CF92EF920F93AA24A3940E941F038B
:1007E0008FE19EE40197F1F700C000000F91EF90B8
:1007F000CF90AF900895AF92CF92EF920F93AA242B
:100800006894A1F80E941F038FE19EE40197F1F71D
:1008100000C000000F91EF90CF90AF9008958F929D
:10082000AF92CF92EF920F93CF93DF93CDB7DEB716
:10083000582F5150523070F4613170F4662371F0CA
:10084000813019F4962F91580AC0823041F4962FC6
:10085000915405C090E803C090E801C090E8842F4F
:10086000622F402F2E2D0C2DEA2CC82CA92E0E9471
:100870001F03DF91CF910F91EF90CF90AF908F90AA
:1008800008955F926F927F928F929F92AF92BF92E4
:10089000CF92DF92EF92FF920F931F93CF93DF934C
:1008A000CDB7DEB7982E762E642E522ED02EBE2CCB
:1008B0001C2DFA2C8FEF91EEA4E081509040A040C7
:1008C000E1F700C0000098E0891641F5892D6FEF2F
:1008D0000E94C5018C2D6A2D41E00E944900862DA1
:1008E000652D41E00E944900802F6E2D41E00E945D
:1008F0004900862D652D40E00E94CC00892D672D92
:10090000402F2E2D0C2DEA2CCC246894C3F80F2EEA
:10091000F8E3AF2EF02D0E941F0332C06FE070E0AD
:10092000072C02C0660F771F0A94E2F7892D0E94F8
:10093000C5018C2D6A2D41E00E944900862D652D50
:1009400041E00E944900802F6E2D41E00E94490045
:10095000862D652D40E00E94CC00892D672D402F0B
:100960002E2D0C2DEA2CC82C0E94FB03892D672DFF
:100970004D2D2B2D0F2EF8E2AF2EF02D0E941F03D0
:10098000892D672D4D2D2B2D012FEF2CC82CAA243E
:100990006894A6F80E941F03892D672D4D2D2B2DDD
:1009A000AA240E946903892D672D4D2D2B2DAA2481
:1009B0006894A2F80E946903892D672D4D2D2B2D77
:1009C000AA240E946903892D672D4D2D2B2D0F2EF2
:1009D000FFE1AF2EF02D0E946903892D672D4D2D6B
:1009E0002B2DAA240E946903892D672D4D2D2B2DB7
:1009F000AA246894A2F80E946903892D672D4D2DC1
:100A00002B2DAA240E946903892D672D4D2D2B2D96
:100A10000E946903892D672D4D2D2B2D0E9469039E
:100A2000892D672D4D2D2B2D0F2EF1E1AF2EF02DA1
:100A30000E946903892D672D4D2D2B2D0F2EFAE075
:100A4000AF2EF02D0E946903892D672D4D2D2B2D82
:100A5000AA246894A2F80E946903892D672D4D2D60
:100A60002B2D0F2EFAE0AF2EF02D0E946903892D59
:100A7000672D4D2D2B2D0F2EF1E1AF2EF02D0E9465
:100A80006903892D672D4D2D2B2DAA240E94690302
:100A9000892D672D4D2D2B2D0E94690381E061E08A
:100AA000492D272D0D2DEB2CC12EAF2C0E940F04AC
:100AB000DF91CF911F910F91FF90EF90DF90CF903A
:100AC000BF90AF909F908F907F906F905F900895B0
:100AD000CF93DF93CDB7DEB7A5970FB6F894DEBFFF
:100AE0000FBECDBF81E460E041E425E001E40F2EBC
:100AF000F6E0EF2EF02D0F2EF1E4CF2EF02DAA24EC
:100B00006894A2F88824689482F80E94410483E4DF
:100B10000E949E021DA21B8E1E8A1C8E1F8A992473
:100B20009394662483E40E94B902898B8F3F09F471
:100B300033C62B8D213021F4833409F02FC603C036
:100B40003989333441F581E460E041E426E001E491
:100B5000EE246894E2F8CC246894C2F80E94E8037A
:100B600081E460E041E426E00F2EFFE0AF2EF02D9F
:100B70000E941F0381E460E041E426E00F2EF6E0CE
:100B8000AF2EF02D0E941F031DA21B8E1E8A41E076
:100B90004C8F19890AC65C8D513009F001C66B8DE6
:100BA000662309F0FFC57DA1713011F581E441E4B0
:100BB00026E001E4EE246894E2F8CC246894C2F8BC
:100BC0000E94E80381E460E041E426E00F2EFFE0AC
:100BD000AF2EF02D0E941F0381E460E041E426E087
:100BE0000F2EF6E0AF2EF02D0E941F031DA21E8ACD
:100BF00089898D3309F0B2C59E899230E8F0DE0113
:100C00001296892F825023E030E02C0F3D1F280FD1
:100C1000311D8D9190E0C0978A30910540F0FD0123
:100C20003297808190E0C0978A30910538F4A217FE
:100C3000B30779F720E003C020E001C021E0EE898E
:100C4000EE2381F0898190E0C0978A30910510F5FC
:100C5000FE013E89E30FF11D808190E0C0978A304C
:100C60009105C0F42130B1F04E89442309F4A8C5A0
:100C70007980872D90E0C0978A30910508F463C091
:100C8000188E1F8E1D8E1E8E18A219A21AA21BA2CC
:100C90001CA292C581E460E041E426E001E4EE2478
:100CA0006894E2F8CC246894C2F80E94E80381E0DA
:100CB00063E041E420E00F2EF6E0EF2EF02D0F2E42
:100CC000F1E4CF2EF02DAA246894A2F88824689429
:100CD00082F80E940F0481E460E041E426E0EE2403
:100CE0006894E2F8CC246894C2F80F2EFCE0AF2E92
:100CF000F02D0E941F0381E460E041E426E00F2E06
:100D0000F0E7AF2EF0E0BF2EF02D0E94B30351E0CC
:100D10005B8F1E8A198949C5EA89FB897190FB8B13
:100D2000EA8BE72DF0E0F097EA30F10530F1688EBC
:100D30002F8F3D8F4E8F58A369A37AA38BA39CA3BB
:100D4000998C6A8C39C59E012E5F3F4F3B8B2A8B55
:100D5000188E1F8E1D8E1E8E18A219A21AA21BA2FB
:100D60001CA220E030E040E050E060E070E080E075
:100D700090E01F89998E6A8E662401E00E94C10C62
:100D8000F22EE32ED42EC52EB62EA72E982E892E07
:100D9000532E442E352E262E7C8B8D8B02E00E9406
:100DA000C10C2F0DE1E02F1508F0E12FE30EF1E06B
:100DB000E51408F0F12FEE0D31E0EE1508F0312FBB
:100DC000F32BD40E31E0D41408F0312FFD0D41E0A7
:100DD000FD1508F0412F342BC50E41E0C31408F077
:100DE000412F3C0D51E03C1508F0512F452BB60E1C
:100DF00051E0B21408F0512F4B0D61E04B1508F093
:100E0000612F562BA70EA1E06C89A61608F0A12F22
:100E10005A0D61E05A1508F0612FA62B980E61E07B
:100E20007D89971608F0612FA90D81E0A91508F0BA
:100E3000812F682B890E860E632F742FB52F872D77
:100E400090E0C097482F892F092F000F000BD02E5C
:100E5000E02E902FF02E240F31E0241708F0312FD0
:100E6000E80F41E0E81708F0412F3E0F81E03E1700
:100E700008F0812F482BF00F51E0F01708F0512FA8
:100E80004F0F81E04F1708F0812F582B600F81E042
:100E90006D1508F0812F560FE1E0561708F0E12F8D
:100EA0008E2BE02FE70F71E0EE1508F0712F682F01
:100EB0006E0F81E06E1708F0812F782BB00F81E064
:100EC000B91708F0812F7B0F91E07B1708F0912F65
:100ED000892BA00FE1E0AF1508F0E12F8A0F91E018
:100EE0008A1708F0912FE92B902F980D9E0F63948D
:100EF000EE896E1609F010CF2F8F3D8F4E8F58A3BD
:100F000069A37AA38BA39CA3998C6A8C61C4E1E04A
:100F1000F0E0EC0FFD1F288DE20FF11D30813A8FBC
:100F2000832F90E0C0978A30910508F454C24E890F
:100F3000598D541708F000C1E1E0F0E0EC0FFD1FFF
:100F4000E50FF11D4080842D90E0C0978A30910517
:100F5000F8F0AF88BA2CCA2CDA2CEA2CFA2C0A2D1D
:100F60001A2DF2C0E1E0F0E0EC0FFD1FE50DF11DE0
:100F70004080E42DF0E0F097EA30F105A0F0A22ED9
:100F8000B32EC42ED52EE62EF72E082F192FDCC037
:100F9000598CAF880A2D2A2D3A2D4A2D5A2D6A2DAB
:100FA0007A2D8A2D902F092D0E94C10C122FF32E1D
:100FB000E42ED52EC62EB72E882E792E332E242E33
:100FC000A52E6A8B7C8B8D8B02E00E94C10C210FB9
:100FD000E92D211708F0E62DF30EF92DF31408F092
:100FE000F62DEF0D392DEF1508F0362DF32BE40E0D
:100FF000392DE21408F0362DFE0D492DFE1508F0AE
:10100000462D342BD50E492DDA1408F0462D3D0D12
:10101000592D3D1508F0562D452BC60E592D6A89C0
:10102000C61608F0562D4C0D692D4C1508F0662D8E
:10103000562BB70EA92D7C89B71608F0A62D5B0D8F
:10104000692D5B1508F0662DA62B880E692D8D89FC
:10105000881608F0662DA80D892DA81508F0862D94
:10106000682B790E760E632F742FB52F842D90E0A8
:10107000C097482F892F192F110F110BE12EF12E38
:10108000912F012F240F392D241708F0362DE80F4A
:10109000492DE81708F0462D3E0F892D3E1708F020
:1010A000862D482BF10F592DF11708F0562D4F0FB3
:1010B000892D4F1708F0862D582B610F892D6E153D
:1010C00008F0862D560FE92D561708F0E62D8E2BC9
:1010D000E12FE70F792DEF1508F0762D682F6E0FB1
:1010E000892D6E1708F0862D782BB10F892DB91731
:1010F00008F0862D7B0F992D7B1708F0962D892BF4
:10110000A10FE92DA01708F0E62D8A0F992D8A1757
:1011100008F0962DE92B912F970D9E0F5394EE8991
:101120005E1608F41FCFA22EB32EC42ED52EE62EA7
:10113000F72E082F192F08C0AF88BA2CCA2CDA2C2A
:10114000EA2CFA2C0A2D1A2DFA8DFB3209F05EC01A
:101150002F8DA20E292D3F8DA31608F02F894D8DBE
:10116000B40E392DB41608F03F892B0D892D2B159F
:1011700008F08F89382B5E8DC50E492DC51608F0F5
:101180004F893C0D892D3C1508F08F89482B68A1AB
:10119000D60E992DD61608F09F894D0D892D4D1527
:1011A00008F08F89982B79A1E70E892DE71608F0B2
:1011B0008F89592F5E0D992D5E1508F09F89892B17
:1011C0009AA1F90E992DEAA1FE1608F09F89682FC1
:1011D0006F0D892D6F1508F08F89982BFBA10F0FCC
:1011E000892D0F1708F08F89900F792D901708F02F
:1011F0007F89872B7CA1170FAF8E2D8F3E8F48A341
:1012000059A36AA39BA3810F8CA3E5C08A8D8D325D
:1012100009F069C02F8D2A19892D9F8D921708F02A
:101220008F894D8D4B19992DED8DE41708F09F890D
:10123000342F381B892D431708F08F89982B5E8D2A
:101240005C19892DFE8DF51708F08F89452F491BF4
:10125000992D541708F09F89892B68A16D19992D34
:1012600058A1561708F09F89562F581B892D6517CE
:1012700008F08F89982B79A17E19892D69A16717AC
:1012800008F08F89672F691B992D761708F09F89C1
:10129000892B7AA17F19992DEAA1E71708F09F8978
:1012A000E72FE81B892D7E1708F08F89982B7BA1EB
:1012B000701B892DFBA1F71708F08F89F72FF91BF9
:1012C0009F2FF92D791708F0FF898F2B7CA1711BB7
:1012D000172F2F8F3D8F4E8F58A369A3EAA39BA38F
:1012E000181B1CA378C08A8D813099F42F8D3D8DF9
:1012F0004E8D58A169A17AA18BA19CA10E94EE0BF1
:101300002F8F3D8F4E8F58A369A37AA38BA39CA3E5
:1013100062C09A8D992309F05EC08A2D8B298C2991
:101320008D298E298F29802B812B09F042C081E4E1
:1013300060E041E426E001E4EE246894E2F8CC2485
:101340006894C2F80E94E80381E064E041E420E090
:101350000F2EF6E0EF2EF02D0F2EF1E4CF2EF02D14
:10136000AA246894A2F88824689482F80E940F0442
:1013700081E460E041E426E0EE246894E2F8CC24C5
:101380006894C2F80F2EFCE0AF2EF02D0E941F03D0
:1013900081E460E041E426E00F2EFDE7AF2EF0E0AF
:1013A000BF2EF02D0E94B303E1E0EB8F1E8A198956
:1013B000FCC12F8D3D8D4E8D58A169A17AA18BA1C5
:1013C0009CA10E943B0D2F8F3D8F4E8F58A369A388
:1013D0007AA38BA39CA3F88DFF5FF88F298D2F5FD5
:1013E000298F3E89F31708F492CDF2C14F8D4195B4
:1013F00021E0141608F020E08D8D819591E01816FB
:1014000008F090E0382F321B21E0831708F020E02D
:10141000922B2E8D219581E0121608F080E0522F3C
:10142000591B91E0251708F090E0892B28A1219500
:1014300091E0121608F090E0722F781B81E02717D8
:1014400008F080E0982B29A1219581E0121608F080
:1014500080E0E22FE91B91E02E1708F090E0892B45
:101460002AA1219591E0121608F090E0622F681BE6
:1014700081E0261708F080E0982B2BA1219581E0D0
:10148000121608F080E0F22FF91B9F2FF1E02917C8
:1014900008F0F0E08F2B2CA121954F8F3D8F5E8FB0
:1014A00078A3E9A36AA39BA3281B2CA37724739496
:1014B00082E060E141E420E001E40F2EF6E0EF2E4F
:1014C000F02D0F2EF1E4CF2EF02DAA246894A2F86F
:1014D0008824689482F80E940F0481E460E041E46B
:1014E00026E0EE246894E2F8CC246894C2F80E94C6
:1014F0001F038F8D2D8D822B3E8D832B48A1842B36
:1015000059A1852B6AA1862B7BA1872B9CA1892BB6
:1015100071F11916F4F1992309F0F7C0772309F056
:1015200040C0772309F0F1C0662309F042C066236A
:1015300009F0EBC0552309F044C0552309F0E5C07C
:10154000442309F046C0442309F0DFC0332309F0E7
:1015500048C0332309F0D9C0222309F04AC022230E
:1015600009F0D3C0EF8DEE2309F04BC0CEC081E46B
:1015700060E041E426E001E4EE246894E2F8CC2443
:101580006894C2F80F2EF0E3AF2EF02D0E9469038D
:10159000BCC0572C28A039A04AA08BA0792C9CA0B5
:1015A00037C0572C28A039A04AA08BA0792C9CA02A
:1015B0002FC0572C28A039A04AA08BA0792C9CA022
:1015C00027C0572C28A039A04AA08BA0792C9CA01A
:1015D0001FC0572C28A039A04AA08BA0792C9CA012
:1015E00017C0572C28A039A04AA08BA0792C9CA00A
:1015F0000FC0572C28A039A04AA08BA0792C9CA002
:1016000007C0572C28A039A04AA08BA0792C9CA0F9
:101610002F8D3D8D4E8D522D632D742D882D992D3E
:101620000F2EFAE0AF2EF02DBB24CC24DD24EE24C7
:10163000FF2400E010E00E94F7140F2EF0E3AF2E1D
:10164000F02DA20E81E460E041E426E001E4EE2406
:101650006894E2F8CC246894C2F80E9469032F8D44
:101660003D8D4E8D522D632D742D882D992D0F2E6D
:10167000FAE0AF2EF02DCC24EE2400E00E943B0DCA
:101680002F8F3D8F4E8F252E362E472E882E992E4A
:1016900019160CF4BDCF992321F5882309F0B8CF92
:1016A000882311F5772309F0B3CF772301F566235B
:1016B00009F0AECF6623F1F4552309F0A9CF5523E5
:1016C000E1F4442309F0A4CF4423D1F4332309F0F7
:1016D0009FCF3323C1F4222309F09ACF972C752C86
:1016E00014C0972C752C11C0972C752C0EC0972CFC
:1016F000752C0BC0972C752C08C0972C752C05C029
:10170000972C752C02C0972C752CF1E07F1689F46C
:1017100081E460E041E426E001E4EE246894E2F82C
:10172000CC246894C2F80F2EFDE2AF2EF02D0E945B
:10173000690381E460E041E426E001E4EE2468947A
:10174000E2F8CC246894C2F80F2EFCE0AF2EF02D06
:101750000E941F0321E02DA3198927C03E89303143
:1017600018F5E1E0F0E0EC0FFD1F432FE30FF11D52
:10177000598950834F5F4E8B81E460E041E426E05D
:1017800001E4EE246894E2F8CC246894C2F8A52E13
:101790000E946903198909C0198907C0198905C000
:1017A000198903C0198901C0198983E40E94B9020B
:1017B000811709F0B7C9F9CF688D6F5F698FA7CB23
:1017C0001F8E1D8E1E8E18A219A21AA21BA21CA269
:1017D0007CA177230CF40ACE77246ACEA0E3B0E094
:1017E000E4EFFBE00C94511C298F3A8F4B8F5C8FF8
:1017F0006D8F7E8F8F8F98A3A98ABA8ACB8ADC8A55
:10180000ED8AFE8A0F8B188F098D1A8D2B8D3C8DDA
:1018100009A31AA32BA33CA3680179018FEF9FEFC3
:10182000A0E0B0E0C822D922EA22FB2289012227C7
:10183000332709A71AA72BA73CA709891A892B893F
:101840003C890DA31EA32FA338A748015901882264
:101850009922AA22BB22290166247724C501B4015A
:10186000A70196010E940E1C6DA77EA78FA798ABBB
:10187000C301B2010E940E1C6B017C01C501B401C1
:1018800029A53AA54BA55CA50E940E1C4B015C0145
:10189000C301B2010E940E1CAB01BC01C80CD91CD3
:1018A000EA1CFB1C0DA51EA52FA538A9C901AA2756
:1018B000BB27C80ED91EEA1EFB1EC814D904EA04B1
:1018C000FB0420F4405050406F4F7F4FC701AA27C0
:1018D000BB27840F951FA61FB71F8D839E83AF83E1
:1018E000B8877601DD24CC244DA55EA56FA578A927
:1018F00060707070C40ED51EE61EF71EC982DA82B3
:10190000EB82FC821C2D0A818B804C808D878E811E
:101910008E878F818F878885888B2D893E894F8917
:10192000588D69A17AA18BA19CA10E940E1C6B010C
:101930007C012D8D3E8D4F8D58A16DA17EA18FA173
:1019400098A50E940E1CDC01CB01C80ED91EEA1E10
:10195000FB1E8D859E85AF85B8898C0D9D1DAE1DA6
:10196000BF1D8D879E87AF87B88B682F7E85212FFF
:10197000302F482D542D8F859889E096E0E10C9406
:101980006D1CCF92DF92EF92FF920F93CF93DF9374
:10199000CDB7DEB760970FB6F894DEBF0FBECDBFF0
:1019A000002309F45AC029873A874B875C876D87E3
:1019B0007E878F87988B80E2801B49855A856B854F
:1019C0007C851816B4F019821A821B821C82992712
:1019D00087FD9095909581959F4F04C0440F551FAA
:1019E000661F771F8A95D2F74D835E836F83788752
:1019F0002CC06A017B01002E04C0CC0CDD1CEE1C47
:101A0000FF1C0A94D2F7C982DA82EB82FC826A0157
:101A10007B0104C0F694E794D794C7948A95D2F7D3
:101A2000D701C6014D855E856F85788904C0440F56
:101A3000551F661F771F0A95D2F7842B952BA62B6F
:101A4000B72B8D839E83AF83B88729813A814B81E1
:101A50005C816D817E818F81988560960FB6F89448
:101A6000DEBF0FBECDBFDF91CF910F91FF90EF9002
:101A7000DF90CF900895A8E4B0E0E1E4FDE00C949D
:101A8000501CF50129A33AA34BA35CA36DA37EA32D
:101A90008FA398A7A98EFA8FCB8EDC8EED8EFE8E4B
:101AA0000F8F18A38DA09EA0AFA0B8A4B7FE67C0EB
:101AB0002195B1E0121608F0B0E03195A1E01316BF
:101AC00008F0A0E0B32EBB1ABB2D882483943B15ED
:101AD00008F08824A829419531E0141608F030E078
:101AE000B42EBA1AAB2D882483944B1508F08824A1
:101AF0003829519541E0151608F040E0452E431A6B
:101B000031E0541508F030E0432B619531E01616B2
:101B100008F030E0862E841A41E0681508F040E0B5
:101B2000342B719541E0171608F040E0572F531BF6
:101B300031E0751708F030E0432B819531E018163D
:101B400008F030E0682F641B462F61E0841708F02E
:101B500060E0362B9195931B29A3BAA3ABA34CA2AB
:101B60008DA25EA34FA398A78FEF9FEFAFEFBFEFBC
:101B700025968CAF9DAFAEAFBFAF259706C025961B
:101B80001CAE1DAE1EAE1FAE25978D8D9E8DAF8DEA
:101B9000B8A1B7FF68C025962CAD3DAD4EAD5FAD89
:101BA0002597209530954095509525962CAF3DAFC3
:101BB0004EAF5FAF2597E19581E01E1608F080E0FB
:101BC000F19591E01F1608F090E04F2F481B81E03F
:101BD000F41708F080E0982BC19481E01C1408F001
:101BE00080E06C2D691B91E0C61608F090E0892B0F
:101BF000D19491E01D1408F090E05D2D581B81E018
:101C0000D51608F080E0982BE19481E01E1408F0CE
:101C100080E03E2D391B91E0E31608F090E0892B1F
:101C2000F19491E01F1408F090E02F2D281B81E023
:101C3000F21608F080E0982B019581E0101608F06C
:101C400080E0702F791B972F71E0091708F070E082
:101C5000872B1195181BE98F4A8F6B8F5C8F3D8FF7
:101C60002E8F9F8F18A3798D6A8D5B8D4C8D3D8D46
:101C70002E8D9F8D88A1E9A1E98BEAA1EA8BEBA1CA
:101C8000EB8BECA1EC8BEDA1ED8BEEA1EE8BEFA13C
:101C9000EF8BE8A5E88F79876A875B874C873D875C
:101CA0002E879F87888B89849A84AB84BC848D859A
:101CB0009E85AF85B889E988FA880B891C89EDAAC9
:101CC000FEAA0FAB18AFCD88DE88EF88F88C00979E
:101CD000A105B10509F0BDC3C814D904EA04FB0489
:101CE00008F04DC100E0801600E0900601E0A0067B
:101CF00000E0B00658F41FEF81169104A104B1046E
:101D000009F090F480E090E0DC0117C020E082163A
:101D100020E0920620E0A20621E0B20650F480E125
:101D200090E0A0E0B0E009C088E090E0A0E0B0E082
:101D300004C088E190E0A0E0B0E0B501A401082E65
:101D400004C076956795579547950A94D2F7FA019E
:101D5000E857FF4F208140E250E060E070E0481B10
:101D6000590B6A0B7B0B421B510961097109411523
:101D7000510561057105A1F1042E04C0880C991C60
:101D8000AA1CBB1C0A94D2F797018601042E04C03A
:101D9000000F111F221F331F0A94D2F780E290E038
:101DA000841B950BCDA8DEA8EFA8F8AC04C0F69470
:101DB000E794D794C7948A95D2F7C02AD12AE22A09
:101DC000F32A0DA91EA92FA938AD04C0000F111FB9
:101DD000221F331F4A95D2F70DAB1EAB2FAB38AF86
:101DE000250166247724950184012070307009ABA9
:101DF0001AAB2BAB3CABC701B601A30192010E9409
:101E00002D1C2DA73EA74FA758AB69A77AA78BA774
:101E10009CA7C701B601A30192010E942D1CCA0113
:101E2000B90129A93AA94BA95CA90E940E1CAB01D2
:101E3000BC0109A51AA52BA53CA57801DD24CC245D
:101E40000DA91EA92FA938ADC901AA27BB27C82AE9
:101E5000D92AEA2AFB2A0DA51EA52FA538A9C41642
:101E6000D506E606F70638F5015010402040304010
:101E700009A71AA72BA73CA7C80CD91CEA1CFB1C56
:101E8000C814D904EA04FB04D0F0C416D506E6064B
:101E9000F706A8F40DA51EA52FA538A902501040DD
:101EA0002040304009A71AA72BA73CA7C80CD91C73
:101EB000EA1CFB1C04C009A71AA72BA73CA7C41A3D
:101EC000D50AE60AF70AC701B601A30192010E94EA
:101ED0002D1C2DA73EA74FA758AB69AF7AAF8BAF8C
:101EE0009CAFC701B601A30192010E942D1CCA013B
:101EF000B90129A93AA94BA95CA90E940E1C6B0142
:101F00007C0149AD5AAD6BAD7CAD9A01112700271C
:101F10004DA95EA96FA978AD60707070042B152B68
:101F2000262B372B8DA59EA5AFA5B8A90C151D0591
:101F30002E053F05C0F40197A109B109080D191D2F
:101F40002A1D3B1D081519052A053B0560F00C15D7
:101F50001D052E053F0538F48DA59EA5AFA5B8A992
:101F60000297A109B10909A51AA52BA53CA57801DD
:101F7000DD24CC24C82AD92AEA2AFB2AB7C4811432
:101F80009104A104B10451F461E070E080E090E0BC
:101F9000A50194010E942D1C49015A0110E08116EF
:101FA00010E0910611E0A10610E0B10658F42FEF01
:101FB00082169104A104B10409F090F480E090E04D
:101FC000DC0117C030E0831630E0930630E0A30652
:101FD00031E0B30650F480E190E0A0E0B0E009C049
:101FE00088E090E0A0E0B0E004C088E190E0A0E0EC
:101FF000B0E0B501A401082E04C076956795579509
:1020000047950A94D2F7FA01E857FF4F2081AC01B7
:10201000BD01420F511D611D711D80E290E0A0E0E5
:10202000B0E0841B950BA60BB70B51F4C818D90868
:10203000EA08FB08F1E04F2E512C612C712C28C1CD
:10204000082E04C0880C991CAA1CBB1C0A94D2F749
:1020500097018601042E04C036952795179507959C
:102060000A94D2F709AB1AAB2BAB3CAB97018601B4
:10207000082E04C0000F111F221F331F0A94D2F72D
:102080000DA71EA72FA738ABEDA8FEA80FA918AD66
:1020900004C016950795F794E7944A95D2F7B801CE
:1020A000A7010DA51EA52FA538A9042B152B262B9E
:1020B000372B0DA71EA72FA738ABEDA8FEA80FA999
:1020C00018AD04C0EE0CFF1C001F111F8A95D2F73B
:1020D000EDAAFEAA0FAB18AF25016624772495015F
:1020E00084012070307009AF1AAF2BAF3CAF69A9E3
:1020F0007AA98BA99CA9A30192010E942D1C29A752
:102100003AA74BA75CA76B017C0169A97AA98BA9A7
:102110009CA9A30192010E942D1CCA01B90129ADFD
:102120003AAD4BAD5CAD0E940E1CAB01BC0176011B
:10213000DD24CC240DA51EA52FA538A9C901AA27E9
:10214000BB27C82AD92AEA2AFB2A09A51AA52BA542
:102150003CA5C416D506E606F70638F50150104032
:102160002040304009AB1AAB2BAB3CABC80CD91CA0
:10217000EA1CFB1CC814D904EA04FB04D0F0C41602
:10218000D506E606F706A8F409A51AA52BA53CA5D1
:10219000025010402040304009AB1AAB2BAB3CAB97
:1021A000C80CD91CEA1CFB1C04C009AB1AAB2BAB36
:1021B0003CABC41AD50AE60AF70AC701B601A30167
:1021C00092010E942D1C29A73AA74BA75CA7219634
:1021D0006CAF7DAF8EAF9FAF2197C701B601A30152
:1021E00092010E942D1CCA01B90129AD3AAD4BAD37
:1021F0005CAD0E940E1C8B019C0121964CAD5DAD27
:102200006EAD7FAD2197DA01992788274DA55EA590
:102210006FA578A960707070842B952BA62BB72BB7
:1022200049A55AA56BA57CA580179107A207B307FE
:10223000F0F44150504060407040880D991DAA1D37
:10224000BB1D88159905AA05BB0588F08017910765
:10225000A207B30760F449A55AA56BA57CA5425017
:10226000504060407040880D991DAA1DBB1D6C0137
:102270007D01C01AD10AE20AF30A09A91AA92BA9F9
:102280003CA9380155244424442A552A662A772A31
:102290008501222733270DA71EA72FA738AB95014D
:1022A00084012070307009AF1AAF2BAF3CAFC7016B
:1022B000B6012DA53EA54FA558A90E942D1C29A702
:1022C0003AA74BA75CA769AB7AAB8BAB9CABC701BA
:1022D000B6012DA53EA54FA558A90E942D1CCA01E7
:1022E000B90129AD3AAD4BAD5CAD0E940E1CAB01FE
:1022F000BC0109A91AA92BA93CA97801DD24CC2489
:102300000DA91EA92FA938ADC901AA27BB27C82A24
:10231000D92AEA2AFB2A09A51AA52BA53CA5C41689
:10232000D506E606F70638F501501040204030404B
:1023300009AB1AAB2BAB3CABC80CD91CEA1CFB1C81
:10234000C814D904EA04FB04D0F0C416D506E60686
:10235000F706A8F409A51AA52BA53CA50250104024
:102360002040304009AB1AAB2BAB3CABC80CD91C9E
:10237000EA1CFB1C04C009AB1AAB2BAB3CABC41A68
:10238000D50AE60AF70AC701B6012DA53EA54FA555
:1023900058A90E942D1C29A73AA74BA75CA72196F4
:1023A0006CAF7DAF8EAF9FAF2197C701B6012DA552
:1023B0003EA54FA558A90E942D1CCA01B90129ADFF
:1023C0003AAD4BAD5CAD0E940E1C8B019C01219679
:1023D0004CAD5DAD6EAD7FAD2197DA0199278827B1
:1023E0004DA95EA96FA978AD60707070842B952B94
:1023F000A62BB72B49A55AA56BA57CA580179107DD
:10240000A207B307D0F44150504060407040880D9F
:10241000991DAA1DBB1D88159905AA05BB0568F065
:1024200080179107A207B30740F449A55AA56BA5E9
:102430007CA5425050406040704009A91AA92BA9C0
:102440003CA97801DD24CC24C42AD52AE62AF72A1F
:1024500050C2C816D906EA06FB0608F437C2803017
:1024600010E0910711E0A10710E0B10750F48F3F91
:102470009105A105B10509F088F400E010E098018C
:1024800016C0803020E0920720E0A20721E0B207CA
:1024900050F400E110E020E030E009C008E010E076
:1024A00020E030E004C008E110E020E030E0AC01C2
:1024B000BD01002E04C076956795579547950A94FF
:1024C000D2F7FA01E857FF4F4081040F111D211D7B
:1024D000311D40E250E060E070E0401B510B620BA8
:1024E000730BA1F48C159D05AE05BF0508F4F5C16D
:1024F000EDA8FEA80FA918AD442455243201E81414
:10250000F9040A051B0508F0EBC1E3C1342E2C01C8
:102510003D0104C0440C551C661C771C4A95D2F73B
:10252000D501C401002E04C0B695A795979587954F
:102530000A94D2F7482A592A6A2A7B2AA5019401CB
:10254000032C04C0220F331F441F551F0A94D2F7D7
:1025500029AF3AAF4BAF5CAFB701A601002E04C064
:1025600076956795579547950A94D2F749AB5AAB3C
:102570006BAB7CABC701B601032C04C0660F771FA1
:10258000881F991F0A94D2F76DA77EA78FA798ABD3
:102590008DA99EA9AFA9B8AD04C0B695A79597958A
:1025A00087950A95D2F74DA55EA56FA578A9482B0A
:1025B000592B6A2B7B2B4DA75EA76FA778AB4301E6
:1025C000AA24BB24930182012070307021960CAFA5
:1025D0001DAF2EAF3FAF219769A97AA98BA99CA9FE
:1025E000A50194010E942D1C29A73AA74BA75CA71F
:1025F0006B017C0169A97AA98BA99CA9A501940109
:102600000E942D1CCA01B90121962CAD3DAD4EADE5
:102610005FAD21970E940E1CDC01CB017601DD2409
:10262000CC240DA51EA52FA538A9A90166277727BB
:10263000C42AD52AE62AF72A09A51AA52BA53CA55E
:10264000C816D906EA06FB0638F5015010402040AE
:10265000304009AB1AAB2BAB3CABC40CD51CE61C11
:10266000F71CC414D504E604F704D0F0C816D90644
:10267000EA06FB06A8F409A51AA52BA53CA502505D
:1026800010402040304009AB1AAB2BAB3CABC40C24
:10269000D51CE61CF71C04C009AB1AAB2BAB3CAB3A
:1026A000C81AD90AEA0AFB0AC701B601A5019401B2
:1026B0000E942D1C29A73AA74BA75CA729966CAFAF
:1026C0007DAF8EAF9FAF2997C701B601A5019401D9
:1026D0000E942D1CCA01B90121962CAD3DAD4EAD15
:1026E0005FAD21970E940E1C4B015C0129964CADF9
:1026F0005DAD6EAD7FAD29979A01112700278DA59D
:102700009EA5AFA5B8A9A070B070082B192B2A2BD5
:102710003B2B89A59AA5ABA5BCA5081519052A05CB
:102720003B05E0F40197A109B109040D151D261D13
:10273000371D041515052605370580F00815190500
:102740002A053B0558F489A59AA5ABA5BCA5029717
:10275000A109B109040D151D261D371DB901A801D8
:10276000481959096A097B094DA75EA76FA778AB7D
:1027700009A91AA92BA93CA97801DD24CC24C82ACF
:10278000D92AEA2AFB2AFFEF8F2EFFEF9F2EA12CDA
:10279000B12C8C209D20AE20BF208701222733271B
:1027A00009A71AA72BA73CA749AC5AAC6BAC7CACC9
:1027B0002FEF3FEF40E050E0422253226422752287
:1027C00029AD3AAD4BAD5CAD8A012227332709AB69
:1027D0001AAB2BAB3CABC501B401A30192010E9423
:1027E0000E1C69AF7AAF8BAF9CAFC501B40129A9AC
:1027F0003AA94BA95CA90E940E1C4B015C0169A57A
:102800007AA58BA59CA5A30192010E940E1C2B0109
:102810003C0169A57AA58BA59CA529A93AA94BA934
:102820005CA90E940E1CAB01BC01840C951CA61C6B
:10283000B71C09AD1AAD2BAD3CADC901AA27BB270A
:10284000880E991EAA1EBB1E84149504A604B70404
:1028500020F4405050406F4F7F4FC501AA27BB273F
:10286000840F951FA61FB71F0DA51EA52FA538A95C
:10287000081719072A073B0718F180179107A207C5
:10288000B307A1F554019924882489AD9AADABAD65
:10289000BCADA070B070880E991EAA1EBB1E4DA9BB
:1028A0005EA96FA978AD032C04C0440F551F661FA5
:1028B000771F0A94D2F7481559056A057B05B0F4CD
:1028C0000894C108D108E108F10810C04424552437
:1028D0003201CC24DD2476010CC04424552432017D
:1028E00081E0C82ED12CE12CF12C03C044245524C6
:1028F0003201FE01319688E0DF011D928A95E9F7E9
:10290000C982DA82EB82FC824D825E826F82788697
:102910002C2D3A814B815C81642D7E818F8198853D
:102920002596ECACFDAC0EAD1FAD2597E114F1047E
:102930000105110509F456C02195E1E0121608F0D1
:10294000E0E03195F1E0131608F0F0E0032F0E1BE4
:10295000E1E0301708F0E0E0FE2B4195E1E01416CD
:1029600008F0E0E0142F1F1B31E0411708F030E0C1
:10297000E32B5195F1E0151608F0F0E0B52FBE1BE2
:1029800031E05B1708F030E0F32B6195E1E01616BB
:1029900008F0E0E0462E4F1A31E0641508F030E010
:1029A000E32B7195F1E0171608F0F0E0A72FAE1BAE
:1029B00031E07A1708F030E0F32B8195E1E018164A
:1029C00008F0E0E0F82EFF1AFF2D31E08F1508F037
:1029D00030E0E32B9195302F412F5B2F642D7A2F20
:1029E0008F2F9E1BC85BDF4FE1E10C946C1CA8E4A9
:1029F000B0E0EDEFF4E10C944F1CF50129A33AA3EC
:102A00004BA35CA36DA37EA38FA398A7A98EFA8F77
:102A1000CB8EDC8EED8EFE8E0F8F18A38DA09EA028
:102A2000AFA0B8A4B7FE67C02195B1E0121608F0B8
:102A3000B0E03195A1E0131608F0A0E0832E8B1AC8
:102A4000B82D882483943B1708F08824A829419541
:102A500031E0141608F030E0942E9A1AA92D88243B
:102A60008394491508F088243829519541E01516BA
:102A700008F040E0752E731A31E0571508F030E089
:102A8000432B619531E0161608F030E0862E841A4B
:102A900041E0681508F040E0342B719541E01716CD
:102AA00008F040E0572F531B31E0751708F030E075
:102AB000432B819531E0181608F030E0A82EA41AB7
:102AC0004A2D61E08A1508F060E0362B9195931B42
:102AD00029A3BAA3ABA37CA28DA25EA34FA398A700
:102AE00088248A94982C540125968CAE9DAEAEAE67
:102AF000BFAE259706C025961CAE1DAE1EAE1FAEFE
:102B000025978D8D9E8DAF8DB8A1B7FF58C0E195EB
:102B100081E01E1608F080E0F19591E01F1608F0A4
:102B200090E04F2F481B81E0F41708F080E0982BCD
:102B3000C19481E01C1408F080E06C2D691B91E0C9
:102B4000C61608F090E0892BD19491E01D1408F08E
:102B500090E05D2D581B81E0D51608F080E0982BA1
:102B6000E19481E01E1408F080E03E2D391B91E0D5
:102B7000E31608F090E0892BF19491E01F1408F01F
:102B800090E02F2D281B81E0F21608F080E0982BB2
:102B9000019581E0101608F080E0902E991A992D89
:102BA00071E0091508F070E0872B1195181BE98F6B
:102BB0004A8F6B8F5C8F3D8F2E8F9F8F18A3E98C70
:102BC000FA8C0B8D1C8DBD8DAE8D3F8D28A1F9A18A
:102BD000EAA14BA15CA16DA17EA18FA198A5E98678
:102BE000FA860B871C87BD87AE873F87288B898431
:102BF0009A84AB84BC840D851E852F853889F9A7FE
:102C0000EAA74BA75CA76B017C0101151105210503
:102C1000310509F0A5C2C814D904EA04FB0408F080
:102C200087C000E0801600E0900601E0A00600E00A
:102C3000B00658F41FEF81169104A104B10409F005
:102C400090F480E090E0DC0117C020E0821620E0E4
:102C5000920620E0A20621E0B20650F480E190E066
:102C6000A0E0B0E009C088E090E0A0E0B0E004C0DF
:102C700088E190E0A0E0B0E0B501A401082E04C016
:102C800076956795579547950A94D2F7FA01E857D4
:102C9000FF4F208140E250E060E070E0481B590B9C
:102CA0006A0B7B0B421B5109610971094DA75EA795
:102CB0006FA778AB411551056105710509F489C10C
:102CC0002DA5022E04C0880C991CAA1CBB1C0A94BA
:102CD000D2F7B701A601022E04C0440F551F661F8C
:102CE000771F0A94D2F780E290E0ADA5BEA58A1BBB
:102CF0009B0BC9A4DAA4EBA4FCA404C0F694E7944B
:102D0000D794C7948A95D2F7C42AD52AE62AF72AF7
:102D100049A55AA56BA57CA504C0440F551F661F85
:102D2000771F2A95D2F749A75AA76BA77CA751C14D
:102D300081149104A104B10451F461E070E080E0D9
:102D400090E0A50194010E942D1C49015A0100E068
:102D5000801600E0900601E0A00600E0B00658F4FE
:102D60001FEF81169104A104B10409F090F480E0F2
:102D700090E0DC0117C020E0821620E0920620E0FF
:102D8000A20621E0B20650F480E190E0A0E0B0E0BD
:102D900009C088E090E0A0E0B0E004C088E190E0E5
:102DA000A0E0B0E0B501A401082E04C076956795B7
:102DB000579547950A94D2F7FA01E857FF4F2081BB
:102DC000820F911DA11DB11D00E210E020E030E056
:102DD000081B190B2A0B3B0B0DA71EA72FA738ABFF
:102DE000011511052105310529F4C818D908EA088B
:102DF000FB08EFC02DA5022E04C0880C991CAA1C4C
:102E0000BB1C0A94D2F7B701A601082E04C0769520
:102E10006795579547950A94D2F749AF5AAF6BAF6C
:102E20007CAFB701A601022E04C0440F551F661FD8
:102E3000771F0A94D2F7C9A4DAA4EBA4FCA404C0B7
:102E4000F694E794D794C7948A95D2F74C295D29D4
:102E50006E297F2949AB5AAB6BAB7CABE9A4FAA4D2
:102E60000BA51CA504C0EE0CFF1C001F111F2A950A
:102E7000D2F7E9A6FAA60BA71CA72501662477249A
:102E800095018401207030700DAB1EAB2FAB38AFB5
:102E900069AD7AAD8BAD9CADA30192010E942D1C52
:102EA000022FC32E142FF52E21966CAF7DAF8EAF5F
:102EB0009FAF219769AD7AAD8BAD9CADA301920117
:102EC0000E942D1C602F7C2D812F9F2D2DA93EA9A6
:102ED0004FA958AD0E940E1CDC01CB0121960CAD10
:102EE0001DAD2EAD3FAD21977801DD24CC2409A97D
:102EF0001AA92BA93CA9A90166277727C42AD52A94
:102F0000E62AF72AC816D906EA06FB0690F4C80C8A
:102F1000D91CEA1CFB1CC814D904EA04FB0448F0C1
:102F2000C816D906EA06FB0620F4C80CD91CEA1C10
:102F3000FB1CC81AD90AEA0AFB0AC701B601A30199
:102F400092010E942D1C122F032F342E252E69AFC3
:102F50007AAF8BAF9CAFC701B601A30192010E946B
:102F60002D1C612F702F832D922D2DA93EA94FA9C5
:102F700058AD0E940E1CDC01CB0109AD1AAD2BAD82
:102F80003CAD7801DD24CC2449A95AA96BA97CA9C0
:102F900060707070C42AD52AE62AF72AC816D906A6
:102FA000EA06FB0690F4C80CD91CEA1CFB1CC814EA
:102FB000D904EA04FB0448F0C816D906EA06FB0661
:102FC00020F4C80CD91CEA1CFB1CC81AD90AEA0A4E
:102FD000FB0A85012227332709AB1AAB2BAB3CAB8D
:102FE000950184012070307009AF1AAF2BAF3CAF50
:102FF000C701B60129A93AA94BA95CA90E942D1CB9
:10300000122F032F442E752E6DAB7EAB8FAB98AF76
:10301000C701B60129A93AA94BA95CA90E942D1C98
:10302000612F702F842D972D29AD3AAD4BAD5CAD3E
:103030000E940E1CDC01CB010DA91EA92FA938ADE1
:103040007801DD24CC2409A51AA52BA53CA5A9014E
:1030500066277727C42AD52AE62AF72AC816D9066A
:10306000EA06FB0690F4C80CD91CEA1CFB1CC81429
:10307000D904EA04FB0448F0C816D906EA06FB06A0
:1030800020F4C80CD91CEA1CFB1CC81AD90AEA0A8D
:10309000FB0AC701B60129A93AA94BA95CA90E945C
:1030A0002D1C122F032F442E752E6DAB7EAB8FABD4
:1030B00098AFC701B60129A93AA94BA95CA90E94FA
:1030C0002D1C612F702F842D972D29AD3AAD4BAD5E
:1030D0005CAD0E940E1CAB01BC01CDA8DEA8EFA820
:1030E000F8ACD6019927882709A51AA52BA53CA5D8
:1030F00020703070802B912BA22BB32B8417950757
:10310000A607B70790F4880D991DAA1DBB1D881549
:103110009905AA05BB0548F084179507A607B707C8
:1031200020F4880D991DAA1DBB1D841B950BA60BB1
:10313000B70B8C019D010DA404C0369527951795FA
:1031400007950A94D2F709831A832B833C831D8247
:103150001E821F8218863A814B815C8160E0F4C236
:10316000C016D106E206F30618F40F2F3E2FEFC269
:10317000003040E0140741E0240740E0340750F4F9
:103180000F3F11052105310509F088F440E050E0BA
:10319000BA0116C0003050E0150750E0250751E095
:1031A000350750F440E150E060E070E009C048E0CD
:1031B00050E060E070E004C048E150E060E070E0A2
:1031C000D901C801042E04C0B695A7959795879597
:1031D0000A94D2F7FC01E857FF4F8081480F511D38
:1031E000611D711D80E290E0A0E0B0E0841B950BB2
:1031F000A60BB70B09F040C00C151D052E053F05A9
:1032000048F069A57AA58BA59CA5681579058A055E
:103210009B0520F189A59AA5ABA5BCA5881999099C
:10322000AA09BB09C01AD10AE20AF30A41E050E038
:1032300060E070E089A49AA4ABA4BCA488169906A7
:10324000AA06BB0618F040E050E0BA01C41AD50A3D
:10325000E60AF70A89A79AA7ABA7BCA709A51AA5EA
:103260002BA53CA509831A832B833C83CD82DE8268
:10327000EF82F88609A564C2382ED901C801032C53
:1032800004C0880F991FAA1FBB1F0A94D2F78DA7ED
:103290009EA7AFA7B8AB242ED501C401042E04C04D
:1032A000B695A795979587950A94D2F70DA51EA573
:1032B0002FA538A9082B192B2A2B3B2B0DA71EA7AE
:1032C0002FA738AB95018401032C04C0000F111FF8
:1032D000221F331F0A94D2F709AF1AAF2BAF3CAFAE
:1032E00046015701042E04C0B694A794979487947E
:1032F0000A94D2F78DAA9EAAAFAAB8AE970186010A
:10330000032C04C0000F111F221F331F0A94D2F791
:1033100089A59AA5ABA5BCA504C0B695A795979518
:1033200087954A95D2F7082B192B2A2B3B2B09ABF3
:103330001AAB2BAB3CAB89A49AA4ABA4BCA4032CC2
:1033400004C0880C991CAA1CBB1C0A94D2F789A63D
:103350009AA6ABA6BCA6CDA4DEA4EFA4F8A847010C
:10336000AA24BB24970186012070307021960CAFEF
:103370001DAF2EAF3FAF21976DA97EA98FA998AD44
:10338000A50194010E942D1C29013A016B017C01C9
:103390006DA97EA98FA998ADA50194010E942D1C4D
:1033A000C301B20121962CAD3DAD4EAD5FAD21976D
:1033B0000E940E1CDC01CB017601DD24CC2409A97E
:1033C0001AA92BA93CA9A90166277727C42AD52ABF
:1033D000E62AF72AC816D906EA06FB0678F593010D
:1033E000820101501040204030400DAB1EAB2FAB8E
:1033F00038AF0DA51EA52FA538A9C00ED11EE21EFF
:10340000F31EC016D106E206F306E0F0C816D90690
:10341000EA06FB06B8F493018201025010402040F6
:1034200030400DAB1EAB2FAB38AF0DA51EA52FA5A1
:1034300038A9C00ED11EE21EF31E04C04DAA5EAA1A
:103440006FAA78AEC81AD90AEA0AFB0AC701B60100
:10345000A50194010E942D1C29013A0129966CAF07
:103460007DAF8EAF9FAF2997C701B601A50194012B
:103470000E942D1CC301B20121962CAD3DAD4EAD75
:103480005FAD21970E940E1C8B019C0129968CAC8C
:103490009DACAEACBFAC2997D4019927882749A928
:1034A0005AA96BA97CA960707070842B952BA62BF0
:1034B000B72BB301A20180179107A207B30700F54C
:1034C0004150504060407040ADA4BEA4CFA4D8A8E5
:1034D0008A0D9B1DAC1DBD1D8A159B05AC05BD0548
:1034E00078F080179107A207B30750F4B301A20147
:1034F00042505040604070408A0D9B1DAC1DBD1D68
:103500006C017D01C01AD10AE20AF30AC9AADAAA3B
:10351000EBAAFCAAEDA8FEA80FA918ADD701992720
:103520008827842B952BA62BB72BFFEFCF2EFFEFF1
:10353000DF2EE12CF12CC822D922EA22FB222D0118
:103540006624772489AC9AACABACBCAC0FEF1FEF10
:1035500020E030E080229122A222B32229AD3AADB0
:103560004BAD5CAD8A01222733270DAB1EAB2FABD1
:1035700038AFC701B601A50194010E940E1C219627
:103580006CAF7DAF8EAF9FAF2197C701B6012DA95C
:103590003EA94FA958AD0E940E1C6B017C01C301CE
:1035A000B201A50194010E940E1C4B015C01C301F4
:1035B000B2012DA93EA94FA958AD0E940E1CAB0126
:1035C000BC01C80CD91CEA1CFB1C21960CAD1DAD1E
:1035D0002EAD3FAD2197C901AA27BB27C80ED91E22
:1035E000EA1EFB1EC814D904EA04FB0420F4405070
:1035F00050406F4F7F4FC701AA27BB27840F951FED
:10360000A61FB71F7601DD24CC2421964CAD5DADFD
:103610006EAD7FAD219760707070C40ED51EE61E32
:10362000F71E89A89AA8ABA8BCA888169906AA066E
:10363000BB0670F088159905AA05BB0599F509A583
:103640001AA52BA53CA50C151D052E053F0550F50B
:10365000B701A60189AC9AACABACBCAC481959090E
:103660006A097B098C019D018DA49EA4AFA4B8A812
:10367000081919092A093B0981E090E0A0E0B0E0AF
:10368000C416D506E606F70618F080E090E0DC01E7
:1036900058016901A81AB90ACA0ADB0AD601C5018C
:1036A0006A017B0189A49AA4ABA4BCA48C189D08D0
:1036B000AE08BF08C9A8DAA8EBA8FCA8C81AD90A9E
:1036C000EA0AFB0AD701C60141E050E060E070E081
:1036D000E9A4FAA40BA51CA5E814F9040A051B0526
:1036E00018F040E050E0BA01841B950BA60BB70B15
:1036F0008C019D01022C04C0000F111F221F331FDB
:103700000A94D2F7032C04C0B694A7949794879494
:103710000A94D2F7082919292A293B2909831A83EF
:103720002B833C836C017D01032C04C0F694E79449
:10373000D794C7940A94D2F7CD82DE82EF82F886BE
:103740003A814B815C816C2D7E818F819885259695
:103750008CAC9DACAEACBFAC259781149104A10498
:10376000B10409F455C00195F1E0101608F0F0E03D
:10377000232F2195E1E0121608F0E0E0322F3F1BE5
:10378000F1E0231708F0F0E0EF2BF42FF19521E0A2
:103790001F1608F020E04F2F4E1BE1E0F41708F051
:1037A000E0E02E2B5195E1E0151608F0E0E0B52F92
:1037B000B21B21E05B1708F020E0E22B619521E0CD
:1037C000161608F020E0C62ECE1A51E06C1508F04F
:1037D00050E0252B7195E1E0171608F0E0E0A72FE7
:1037E000A21B21E07A1708F020E0E22BF82FF195D8
:1037F00021E01F1608F020E08F2F8E1B51E0F817F4
:1038000008F050E0252B91955B2F6C2D7A2F921BA1
:10381000202FC85BDF4FE2E10C946B1C629FD0014C
:10382000739FF001829FE00DF11D649FE00DF11D7B
:10383000929FF00D839FF00D749FF00D659FF00D2A
:103840009927729FB00DE11DF91F639FB00DE11D17
:10385000F91FBD01CF0111240895A1E21A2EAA1B60
:10386000BB1BFD010DC0AA1FBB1FEE1FFF1FA21730
:10387000B307E407F50720F0A21BB30BE40BF50B2D
:10388000661F771F881F991F1A9469F760957095B6
:10389000809590959B01AC01BD01CF0108952F92B9
:1038A0003F924F925F926F927F928F929F92AF92D0
:1038B000BF92CF92DF92EF92FF920F931F93CF931D
:1038C000DF93CDB7DEB7CA1BDB0B0FB6F894DEBFB4
:1038D0000FBECDBF09942A88398848885F846E84DA
:1038E0007D848C849B84AA84B984C884DF80EE8024
:1038F000FD800C811B81AA81B981CE0FD11D0FB62D
:10390000F894DEBF0FBECDBFED010895F894FFCF50
:1039100037383900343536013132332D43303D2BC1
:1039200053594E544158204552524F52004D415424
:1039300048204552524F5200000102020303030384
:10394000040404040404040405050505050505052F
:10395000050505050505050506060606060606060F
:1039600006060606060606060606060606060606F7
:1039700006060606060606060707070707070707DF
:1039800007070707070707070707070707070707C7
:1039900007070707070707070707070707070707B7
:1039A00007070707070707070707070707070707A7
:1039B000070707070707070708080808080808088F
:1039C0000808080808080808080808080808080877
:1039D0000808080808080808080808080808080867
:1039E0000808080808080808080808080808080857
:1039F0000808080808080808080808080808080847
:103A00000808080808080808080808080808080836
:103A10000808080808080808080808080808080826
:103A20000808080808080808080808080808080816
:083A300008080808080808084E
:00000001FF
